:03000000021310D8
:0C131000787FE4F6D8FD75816902135760
:10000E0020042004200420042004200420042004C2
:10001E0020042004200420042004200420042004B2
:10002E00FFFF000000003E41414122007F09090907
:10003E007F007F091929460018182424423C1818FD
:10004E00003C4242424242423C00422424181824C0
:10005E002442003C4242424242423C001824244286
:10006E007E424242004262524A464242424649491A
:10007E0031007F090906007F494949007F494949F6
:10008E00007F41413E46494931003E414122003EFA
:10009E0041413E007F112946007F4949497F414138
:1000AE007F0000007F7949494F4949497F0F080871
:1000BE007F4F4949797F4949790101017F7F49493C
:1000CE007F4F49497F000000000000000000000043
:1000DE00000000000000000040607078706040007A
:1000EE000000000000000000000000000000000002
:1000FE0000000000000000000000000000001038AA
:10010E007CFE0000000000000000000000FE7C38B5
:10011E0010000000000000000000000000000000C1
:10012E0000000000000000000000000000000000C1
:10013E00040C1C3C1C0C040000000000000000001D
:10014E0000000000000000000000000000000000A1
:10015E000000000682FE8206000000000000000083
:10016E0000000000000000CC929292660000000099
:10017E00000000000000000000000000000000F081
:10018E00F8F8F8F8F0000000000000000000000091
:10019E000000F0F8F8F8F8F0000000000000000091
:1001AE0000007010F010700000000000010101410D
:1001BE00F0404040000040C00040C000000040C180
:1001CE0041410140C04040C000000000000000C49A
:1001DE00272460000000050000000000C32424C294
:1001EE000020E0C304E42704000004070404000414
:1001FE0007040407040000000000000C09090600B3
:10020E0000000A00000000000708080700080F01A0
:10021E00060F0000000000000000000000000000BB
:10022E0000000000000000000000000000000000C0
:10023E0000000000000000000000000000000000B0
:10024E0000000000000000000000000000000000A0
:10025E000000000000000000000000000000000090
:10026E000000000000000000000000000000000080
:10027E000000000000000000000000000000000070
:10028E000000000000000000000000000000000060
:10029E000000000000000000000000000000000050
:1002AE000000000000000000000000000000000040
:1002BE000000000000000000000000000000000030
:1002CE000000000000000000000000000000000020
:1002DE000000000000000000000000000000000010
:1002EE000000000000000000000000000000000000
:1002FE0000000000000000000000000000000000F0
:10030E0000000000000000000000000000000000DF
:10031E0000000000000000000000000000000000CF
:10032E000000000000000000000000000000FCFEC5
:10033E008F0303030303000000000000000000E031
:10034E00FEDFC7FFFCE0000000000000000000FF21
:10035E00FFFF63E3F3FF3E08000000000000000013
:10036E00C0C0C0C00000000000FCFE8F030363632A
:10037E00E3E00000000000C0F8FFCFCFFFF8C000A0
:10038E0000000000FFFFFF7EF8C0F07CDFFFFF00E3
:10039E000000000000FFFF33333333030000000082
:1003AE00000000000000000000000000000001033B
:1003BE0007060606060300000000000000000707FF
:1003CE000100000003070700000000000000000706
:1003DE0007070000030707040000000000000000EC
:1003EE0000000000000000000001030706060606DC
:1003FE0007030000000004070700000000070706BF
:10040E0000000000070707000103030007070700AD
:10041E0000000000000707060606060600000000A2
:10042E0000000000000000000000000000000000BE
:10043E00000000000000000040C0C080000080C02E
:10044E00C00000000000000000000040C0C080009E
:10045E0000C0C040000000000000000000000000CE
:10046E0000000000000000000000000000C0C0C03E
:10047E00C0C0C0C0800000000000000000000000EE
:10048E00000000000000000000000000000000005E
:10049E00000000000000000000000000000000004E
:1004AE00000000000000000000000000000000003E
:1004BE0000000000000000000001071FFCFE0F03FB
:1004CE0000007EFFFE8080FEFFFE0000C1F77F3E33
:1004DE007FF3C100007EFFFE8080FEFFFE0000FF66
:1004EE00FE060607FFFE000080C0800000FFFFFF33
:1004FE008080C0F3FF3E0010FCFEB6B3B6BE3C00DB
:10050E0000FFFE060607FFFE0000DCFEF6E3B73F27
:10051E001F020000000000000000000000000000AC
:10052E0000000000000000000000000000000000BD
:10053E0000000000000000000000000001010000AB
:10054E000000000101010101010100010101000093
:10055E000001010100000101010101010100000182
:10056E000100000001010000000101000001010175
:10057E000101010100000000000101010101010063
:10058E00000101000000010100000E1F1B19190FD0
:10059E000F07000000000000000000000000000037
:1005AE00000000000000000000000000000000003D
:1005BE00000000000000000000000000000000002D
:1005CE00000000000000000000000000000000001D
:1005DE00000000000000000000000000000000000D
:1005EE0000000000000000000000000000000000FD
:1005FE0000000000000000000000000000000000ED
:10060E0000000000000000000000000000000000DC
:10061E0000000000000000000000000000000000CC
:10062E0000000000000000000000000000000000BC
:10063E0000000000000000000000000000000000AC
:10064E000000008080C0C0C0C0C0C0C0C0C00000DC
:10065E00000000000080808080808080800000008C
:10066E00000000808080808080808000000000007C
:10067E00000080808080808080800000808080806C
:10068E0080808080808080808080800000000000DC
:10069E00000000000000000000000000000000004C
:1006AE00000000000000000000000000000000003C
:1006BE000000000000000000000000000080F0FCC0
:1006CE00FEFFFFFFFFFFFFFFFFFFFFFFFFFF00002B
:1006DE0000000080FEFFFFFFFFFFFFFFFFF880001E
:1006EE000000007FFFFFFFFFFFFFFFFFF8E080E04D
:1006FE00F8FFFFFFFFFFFFFFFFFF0000FFFFFFFF01
:10070E00FFFFFFFFFFFFFFFFFFFF0F0000000000D6
:10071E0000000000000000000000000000000000CB
:10072E0000000000000000000000000000000000BB
:10073E00000000000000000000000000007FFFFF2E
:10074E00FFFFFFFFFFFF07030170F0F0F0F0F0F086
:10075E000000F8FFFF3F071FFFFFFFFFFFFFFFFC3B
:10076E00C0000000FFFFFFFFFFFFFFFFFFFFFFFFC7
:10077E00FFFFFFFFFFFFFFFFFF00000000FFFFFF77
:10078E00FFFFFFFFFF787878781800000000000068
:10079E00000000000000000000000000000000004B
:1007AE00000000000000000000000000000000003B
:1007BE000000000000000000000000000000010723
:1007CE000F1F1F3F3F7F7E7C78787F7F7F7F7F006C
:1007DE00303F3F3F050C3C1C0E1F3F3F3F3F3F3F0E
:1007EE003F3E30003F3F3F3F3F0001070F3F7F3FFF
:1007FE000F0701003F3F3F3F3F000000003F3F3FDC
:10080E003F3F3F3F3F3C3C3C3C3C0C000000000067
:10081E0000000000000000000000000000000000CA
:10082E0000000000000000000000000000000000BA
:10083E00000000000000000000000000000000C0EA
:10084E00F0F8FCFCFEFEFEFEFEFEFEFCFCF8F0C028
:10085E0000000C7CFCFCFCFCFCFCFCFCC00000F072
:10086E00FCFCFC7C0C00FCFCFCFCFCFCFCFCFCFC26
:10087E00FCFCFCFC7C0000FCFCFEFEFEFEFEFEFE14
:10088E00FEFEFEFEFCFCFCF8F0E080000000000026
:10089E00000000000000000000000000000000004A
:1008AE00000000000000000000000000000000003A
:1008BE000000000000000000000000000000FEFF2D
:1008CE00FFFFFFFFFF1F0707071FFFFFFFFFFFFFD2
:1008DE00FE000000031FFFFFFFFFFFFFFFF8FFFFFB
:1008EE00FF1F0300000007FFFFFFFFFFFFFFFFC713
:1008FE00C7C7C7C70000000FFFFFFFFFFFFFFFFFC7
:10090E0003038387FFFFFFFFFF7F1F000000000030
:10091E0000000000000000000000000000000000C9
:10092E0000000000000000000000000000000000B9
:10093E000000000000000000000000000000010F99
:10094E003F7FFFFFFFF0C0C0E0F8FFFFFF7F3F0FCC
:10095E00010000000000000F7FFFFFFFFFFF7F0F71
:10096E0000000000000000FFFFFFFFFFFFFFFFE39E
:10097E00E3E3E3E060000000FFFFFFFFFFFFFFFF88
:10098E001F3F7FFFFFFFFBF1E0C080000000000073
:10099E000000000000000000000000000000000049
:1009AE000000000000000000000000000000000039
:1009BE000000000000000000000000000000000029
:1009CE000000000101030303030301010000000006
:1009DE000000000000000000000101010101000004
:1009EE0000000000000000010101010101010101F0
:1009FE0001010101000000000101010101010101DD
:100A0E0000000000010303010100000000000000CF
:100A1E0000000000000000000000000000000000C8
:090A2E00000000000000000000BF
:1018C60002290096023E00960236009602320096E3
:1018D6000224009602260096024000000221000023
:0718E6000242000001340082
:10197700C290D29175A0FFD292AFA0C292EF20E79A
:01198700F36C
:01198800223C
:06193000ED24B8FFD20215
:10193600C290C291A202B39294A20292938FA0D2B5
:051946009200C2922294
:06191000120B2DFFD202B4
:10191600AE07121977D290C291A202B39294A20294
:0A19260092938EA0D29200C292228A
:10182100C2B70000D2B7C2027F3F121936C2027F8F
:10183100C0121936C2027FB8121936C2027F401295
:101841001936D2021F121936D2027FC0121936D2AE
:0D185100027FB8121936D2027F400219360C
:10185E00E4FDED24B8FFC202121936C2027F401217
:10186E001936121930D2027F40121936E4FCC20228
:10187E00E4FF121916D202E4FF1219160CBC40EE48
:04188E000DBD08CEB6
:011892002233
:0C139C007BFF750D03750E347D187C007E
:0A13A8008B088A09890A8C0B8D0C52
:1013B200E4F50FC3E50F950CE4950B5063E50D249E
:1013C200B8FFC202121936E50D121931E50E250FCA
:1013D200FFE433FEC3EF9440EE64809480E50E5048
:1013E2001E2440250FFFC202121936AB08AA09A912
:1013F2000A850F82758300120B2DFFC202801A2507
:101402000FFFD202121936AB08AA09A90A850F8268
:10141200758300120B2DFFD202121916050F80934D
:0114220022A7
:061423008B088A09890A0A
:10142900E4F50BE50B24B8FFC202121936C2027F9C
:1014390040121936E4F50CAB08AA09A90A75F0801F
:10144900E50BA4250CF582E435F0F583120B2DFF8D
:10145900C202121916050CE50CC3944040D9E50BDC
:10146900121931D2027F40121936E4F50CE50B75D9
:10147900F080A42440FFE435F0FEE50C2FF582E46A
:101489003EF583AB08AA09A90A121910050CE50C47
:0E149900C3944040D8050BE50BC39408408572
:0114A7002222
:0C17E100EA25E025E02408FFE954BBFBEA
:1017ED00AE07AC03EEC39440ED501724B8FFC20210
:1017FD00121936EE2440FFC202121936AF04C2028E
:10180D00800E121931AF06D202121936AF04D20270
:04181D001219162264
:061893008B088A09890A96
:10189900E4FD121930D2027F54121936E4FCAB0868
:1018A900AA09A90A75F02CEDA42CF582E435F0F506
:0C18B900831219100CBC2CE60DBD08D6E3
:0118C5002200
:10196200E4FAAD027BFF7F1E1217ED7F471217EDDF
:041972000ABA08EEB7
:01197600224E
:10127700E4FAE4F9E4F510EA25E025E02444F8E689
:10128700FE08E6FFC3740C99FDEFA805088005CE9C
:10129700C313CE13D8F930E00375100FEA25E02504
:1012A700E02446F8E6FE08E6A805088005CEC31345
:1012B700CE13D8F930E0034310F0E925E025E02408
:1012C7001FFFAD02AB101217EDE925E025E0242042
:1012D700FFE51054BBFB1217EDE925E025E02421BB
:1012E700FFE51054DDFB1217EDE925E025E0242288
:1012F700FFAB101217ED09E9640A600302127B0ABB
:08130700EA6408600302127998
:01130F0022BB
:100BC100E4FB20B51EC3E52794B0E5269404500A42
:100BD1000527E52770130526800FE4F526F5277B09
:100BE1000680067526047527B020B01EC3E53F9424
:100BF10096E53E9400500A053FE53F7013053E809F
:100C01000FE4F53EF53F7B018006753E00753F968A
:100C110020B21EC3E52A9496E5299400500A052ABC
:100C2100E52A70130529800FE4F529F52A7B028056
:100C310006752900752A9620B41EC3E5259496E50C
:100C4100249400500A0525E52570130524800FE43E
:100C5100F524F5257B03800675240075259620B1C2
:100C61003BC3E5379496E5369400500A0537E537DE
:100C7100703405368030AE21AF227C007D41120BED
:100C81005A8E368F37C3E5229402E521940050082D
:100C91000522E522700205217B04800AE4F521F595
:100CA10022F53675379620B33BC3E5339496E5328A
:100CB1009400500A0533E533703405328030AE407C
:100CC100AF417C007D41120B5A8E328F33C3E54117
:100CD1009402E540940050080541E5417002054049
:100CE1007B05800AE4F540F541F532753396AF0393
:010CF10022E0
:070DEE00FDAB3DAA3CAF3A4A
:080DF5008F108D118A128B137F
:100DFD00D202AD30AC2FE4F514C374039514252E37
:100E0D0025E02444F97E00ED540FFFC37409952DA0
:100E1D00FBEFA803088005C333CE33CED8F9F4FF1A
:100E2D00EEF457F7EF0957F7ECC4F854F0C868FC27
:100E3D00EDC4540F48FD0514E514B404BCAC12AD5B
:100E4D0013E4F5147E00ED540FFFC374099510FBE8
:100E5D00EFA803088005C333CE33CED8F9FFC37492
:100E6D00039514251125E02444F8EE56FEEF08569F
:100E7D004E6002C202ECC4F854F0C868FCEDC454D4
:100E8D000F48FD0514E514B404BAAC2FAD30E4F5EC
:100E9D0014C374039514252E25E02444F97E00ED2A
:100EAD00540FFFC37409952DFBEFA803088005C3EC
:100EBD0033CE33CED8F9FFEE47F7EF0947F7ECC441
:100ECD00F854F0C868FCEDC4540F48FD0514E51442
:050EDD00B404BEA202F6
:010EE20022ED
:0419C6008F088D09F0
:0419CA00744EFFFE5A
:0119CE0022F6
:03199800FDAF3868
:04199B008F108D110B
:04199F0074E4FFFEEF
:0119A3002221
:0C19A400AD39AF381219C68E3C8F3D22C1
:0C19B000AD2CAF2B12199B8E2F8F302214
:0A107A00E53B14FDAB3DAA3CAF3A84
:041084008F10A9051B
:10108800E4FD7E00EB540FFFC374099510FCEFA834
:1010980004088005C333CE33CED8F9F4FFEEF4FE4E
:1010A800C374039D29FC25E02444F8EE56FEEF089E
:1010B80056FFEC25E02444F8A60608A607EAC4F87B
:1010C80054F0C868FAEBC4540F48FB0DBD04B3AA2A
:1010D8003CAB3DE4FD7E00EB540FFFC37409953A29
:1010E800FCEFA804088005C333CE33CED8F9FFC37C
:1010F80074039D253BFC25E02444F8EE46FEEF08EA
:1011080046FFEC25E02444F8A60608A607EAC4F83A
:0F11180054F0C868FAEBC4540F48FB0DBD04B681
:0111270022A5
:08112800AB30AA2FAD2EAF2D54
:041130008F10A9056E
:10113400E4FD7E00EB540FFFC374099510FCEFA887
:1011440004088005C333CE33CED8F9F4FFEEF4FEA1
:10115400C374039D29FC25E02444F8EE56FEEF08F1
:1011640056FFEC25E02444F8A60608A607EAC4F8CE
:1011740054F0C868FAEBC4540F48FB0DBD04B3AA7D
:101184002FAB30E4FD7E00EB540FFFC37409952DA3
:10119400FCEFA804088005C333CE33CED8F9FFC3CF
:1011A40074039D252EFC25E02444F8EE46FEEF084A
:1011B40046FFEC25E02444F8A60608A607EAC4F88E
:0F11C40054F0C868FAEBC4540F48FB0DBD04B6D5
:0111D30022F9
:0416AF008F10A905EA
:1016B300E4FD7E00EB540FFFC374099510FCEFA803
:1016C30004088005C333CE33CED8F9F4FFEEF4FE1D
:1016D300C374039D29FC25E02444F8EE56FEEF086D
:1016E30056FFEC25E02444F8A60608A607EAC4F84A
:0F16F30054F0C868FAEBC4540F48FB0DBD04B3A4
:0117020022C4
:101799007E00CFCDCFCECCCE120B6CAB07E5162495
:0617A90005FFF516AD1767
:0617AF008F188D19A9033B
:1017B500E4FAE5182AFF75F004E9A42AF582E43570
:1017C500F0F583E58224ABF582E5833400F583E407
:0B17D50093FBAD191217ED0ABA04D700
:0117E00022E6
:0419CF007D047F3ED6
:0519D300AB340217AF68
:10152D008F168D17AE42AF437C277D10120B6CAB1F
:10153D0007AD17AF161217AFAE42AF437C277D1024
:10154D00120B6C7E037FE812179BAE42AF437C03F8
:10155D007DE8120B6C7F64121799AE42AF437C008D
:10156D007D64120B6C7F0A121799E5162405FFF5A1
:10157D0016C007AE42AF437C007D0A120B6CAB0563
:07158D00D007AD170217AFF4
:100FC400E4F51178127C00FD7BFF7A0A7933FE7F09
:100FD40004120B07E4F510E51025E02444F8E65468
:100FE4003FFE08E654FC64FC7003EE643F7038E591
:100FF4001004FF74122511F8A6070543E543700297
:101004000542AE42FF7C007D1E120B6CED4C700F4E
:10101400E5346409600905347D047F0D1219D30594
:1010240011E511640460090510E510C3941040A78C
:10103400E4F51174122511F8E6602D14F510E5108D
:10104400D394004023E51025E02442F8E6FE08E6A8
:10105400FFE51025E02444F8A60608A607784476A0
:1010640020087604151080D60511E511B404C47D5A
:06107400017F0302152DAF
:100EE300AD31AF3512199B8F828E83E4FAE4F9C3D7
:100EF300740F9AFFE582AE83A807088005CEC3135B
:100F0300CE13D8F930E002790FC3740B9AFFE58250
:100F1300AE83A807088005CEC313CE13D8F930E0FB
:100F2300034301F0EA25E025E02407FFAB017D063A
:100F33001217ED1217E1EA25E025E02409FFE95431
:100F4300DDFB1217EDEA25E025E0240AFFAB0112D1
:100F530017EDE4F9C374079AFFE582AE83A8070887
:100F63008005CEC313CE13D8F930E002790FC374D2
:100F7300039AFFE582AE83A807088005CEC313CE8C
:100F830013D8F930E0034301F0EA25E025E0240714
:100F9300FFAB017D071217ED1217E1EA25E025E00B
:100FA3002409FFE954DDFB1217EDEA25E025E024CF
:100FB3000AFFAB011217ED0AEA64046003020EF0A4
:010FC300220B
:07000300753A03753B0C2266
:0F198900E58A75F0058485F02DE4F52E020EE356
:100CF200120BC1EF147003020D7F24FE7003020D6C
:100D0200D7147003020D91147003020DB424036012
:100D120003020DEDC2AFC2B6E5396403701A1219AF
:100D220098AA06AB07AD3BAF3A120DF5500AE4F5AF
:100D3200391219A47D038030E4121998AA06AB0770
:100D4200AD2EAF3A120DF5502FE53904FDAF381232
:100D5200199BAA06AB07AD3BAF3A120DF550190528
:100D6200391219A4E53914FDAF3812199BAA06AB42
:100D720007AD3BAF3A121084D2AFD2B622C2B6E56B
:100D82003B04120DEE5005053B12107AD2B622C278
:100D9200B6E53A14FFAB3DAA3CAD3B120DF5500F40
:100DA200153AE53A04FFAB3DAA3CAD3B121084D2A2
:100DB200B622C2B6E53A04FFAB3DAA3CAD3B120DEA
:100DC200F5500F053AE53A14FFAB3DAA3CAD3B1294
:100DD2001084D2B622C2B6C2B6E53B14120DEE5052
:0C0DE20008153BE53B0412107DD2B62240
:10170300C202AD30AC2FE4FB7E00ED540FFFC37477
:1017130009952DFAEFA802088005C333CE33CED83E
:10172300F9FFC374039B252E25E02444F8EE56FEEF
:10173300EF08564E6002D202ECC4F854F0C868FCBD
:0C174300EDC4540F48FD0BBB04BEA20215
:01174F002277
:1014A800E53425E0FFC374149FFFE528C39F50036C
:1014B800052822E4F528E52E04FDAB30AA2FAF2D30
:1014C800120DF5501C052EE52E14FDAB30AA2FAFDA
:1014D8002D121130E53B14FDAB3DAA3CAF3A02108A
:1014E80084E52ED3940B4037AB30AA2FAD2EAF2D09
:1014F8001216AF0543E543700205427D017F0312D2
:10150800152D1219891219B01217039204121128F5
:1015180012107AE53425E0FFC374139FF5282212D0
:051528000FC4D20422F3
:1011D400D20012185EE4FAAF027BFFE4FD1217EDB1
:1011E400AF027D071217ED0ABA80EC7B7F7D047F86
:1011F4003C1217ED7B3E7F3B1217ED7B1C7F3A12AE
:1012040017ED7B087F391217ED7B7F7F431217EDB3
:101214007B3E7F441217ED7B1C7F451217ED7B0844
:101224007F461217ED7A00797B12139C1219CF3086
:101234000040120BC1EF24FB601914602A240270D1
:10124400EEE5346009C2B615341219CFD2B620B116
:10125400DE80FBE53464096009C2B605341219CF97
:10126400D2B620B3CA80FBC200C2B630B5FDD2B636
:0212740080BD3B
:011276002255
:1018EE00D2007BFF7A027933121423300013120BCD
:1018FE00C1EF24FA70F5C200C2B630B5FDD2B68083
:01190E00EAEE
:01190F0022B5
:10175000E4F528753506753102F542F543C204C239
:101760000312185EE4F5231219627BFF7A00799365
:10177000E4F50D750E037D18FC1213A87BFF7A00AB
:10178000797B750D03750E031213A87D017F03127B
:09179000152D7D047F0D0219D313
:0A19BC00758903D28CD2A9D2AF22A4
:1015F800E4FFEF25E0240EF582E43400F583E4935C
:10160800FC740193FDEF25E02444F8A60408A60520
:101618000FBF13DE7BFF7A0079D3121893C204122E
:1016280000031219891219A41219B0AB3DAA3CADD6
:101638003BAF3A121084121128E53425E0FFC37439
:10164800139FF5281219BC200405120CF280F8C269
:01165800AFE2
:01165900226E
:10159400D2007BFF7A06793312142330B4FD300075
:1015A40013120BC1EF24FA70F5C200C2B630B5FDB8
:1015B400D2B680EA12185EE4FAAF027BFFE4FD12B1
:1015C40017EDAF027D071217ED0ABA80EC7A0079A5
:1015D4009312139C7D047F3412152DD20030001316
:1015E400120BC1EF24FA70F5C200C2B630B5FDD2B9
:0315F400B680EAD4
:0115F70022D1
:10194B0012182112185E1218EE1211D4121750121F
:07195B0015F812159480EF4E
:03000B0002165A80
:10165A00C0E0C0F0C083C082C0D075D000C000C056
:10166A0001C002C003C004C005C006C007758C00D3
:10167A00758A00E523C3940A50040523800C752358
:10168A00002003061214A8121277D007D006D0053C
:10169A00D004D003D002D001D000D0D0D082D083E1
:0516AA00D0F0D0E03299
:10131C0002194BE493A3F8E493A34003F68001F283
:10132C0008DFF48029E493A3F85407240CC8C333D2
:10133C00C4540F4420C8834004F456800146F6DFA1
:10134C00E4800B01020408102040809018C6E47E53
:10135C00019360BCA3FF543F30E509541FFEE49396
:10136C00A360010ECF54C025E060A840B8E493A35D
:10137C00FAE493A3F8E493A3C8C582C8CAC583CA88
:10138C00F0A3C8C582C8CAC583CADFE9DEE780BE40
:0118ED0000FA
:100A3700E709F608DFFA8046E709F208DFFA803EA1
:100A470088828C83E709F0A3DFFA8032E309F6088E
:100A5700DFFA8078E309F208DFFA807088828C83F6
:100A6700E309F0A3DFFA806489828A83E0A3F608AA
:100A7700DFFA805889828A83E0A3F208DFFA804C84
:100A870080D280FA80C680D4806980F2803380105B
:100A970080A680EA809A80A880DA80E280CA8033C4
:100AA70089828A83ECFAE493A3C8C582C8CCC5833C
:100AB700CCF0A3C8C582C8CCC583CCDFE9DEE7800C
:100AC7000D89828A83E493A3F608DFF9ECFAA9F08B
:100AD700EDFB2289828A83ECFAE0A3C8C582C8CCE1
:100AE700C583CCF0A3C8C582C8CCC583CCDFEADEFA
:100AF700E880DB89828A83E493A3F208DFF980CC5C
:100B070088F0EF60010E4E60C388F0ED2402B40454
:100B17000050B9F582EB2402B4040050AF232345FB
:060B27008223900A87738F
:100B2D00BB010CE58229F582E5833AF583E022507D
:100B3D0006E92582F8E622BBFE06E92582F8E222C7
:0D0B4D00E58229F582E5833AF583E49322E1
:100B5A00EF8DF0A4A8F0CF8CF0A428CE8DF0A42EAF
:020B6A00FE2269
:100B6C00BC000BBE0029EF8DF084FFADF022E4CC6D
:100B7C00F875F008EF2FFFEE33FEEC33FCEE9DEC36
:100B8C00984005FCEE9DFE0FD5F0E9E4CEFD22ED7C
:100B9C00F8F5F0EE8420D21CFEADF075F008EF2FC6
:100BAC00FFED33FD4007985006D5F0F222C398FDB7
:050BBC000FD5F0EA2254
:00000001FF
