:0300000002117278
:0C117200787FE4F6D8FD7581890211B980
:10000E0046494931007F090906007F494949007F69
:10001E00494949007F41413E46494931003E4141EF
:10002E0022003E41413E007F112946007F49494949
:10003E007F41417F0000007F7949494F4949497FFF
:10004E000F08087F4F4949797F4949790101017F9E
:10005E007F49497F4F49497F0000000000000000A2
:10006E00000000000000000000000040607078708A
:10007E0060400000000000000000000000000000D2
:10008E000000000000000000000000000000000062
:10009E000010387CFE000000000000000000000090
:1000AE00FE7C381000000000000000000000000080
:1000BE000000000000000000000000000000000032
:1000CE00000000040C1C3C1C0C040000000000008E
:1000DE000000000000000000000000000000000012
:1000EE000000000000000682FE82060000000000F4
:1000FE0000000000000000000000CC92929266000A
:10010E0000000000000000000000000000000000E1
:10011E000000F0F8F8F8F8F0000000000000000011
:10012E000000000000F0F8F8F8F8F0000000000001
:10013E0000000000007010F01070000000000001C0
:10014E00010141F0404040000040C00040C00000AE
:10015E000040C141410140C04040C00000000000CD
:10016E000000C4272460000000050000000000C34A
:10017E002424C20020E0C304E42704000004070482
:10018E0004000407040407040000000000000C092A
:10019E0009060000000A000000000007080807001A
:1001AE00080F01060F000000000000000000000014
:1001BE000000000000000000000000000000000031
:1001CE000000000000000000000000000000000021
:1001DE000000000000000000000000000000000011
:1001EE000000000000000000000000000000000001
:1001FE0000000000000000000000000000000000F1
:10020E0000000000000000000000000000000000E0
:10021E0000000000000000000000000000000000D0
:10022E0000000000000000000000000000000000C0
:10023E0000000000000000000000000000000000B0
:10024E0000000000000000000000000000000000A0
:10025E000000000000000000000000000000000090
:10026E000000000000000000000000000000000080
:10027E000000000000000000000000000000000070
:10028E000000000000000000000000000000000060
:10029E000000000000000000000000000000000050
:1002AE000000000000000000000000000000000040
:1002BE00000000000000000000000000000000C070
:1002CE00C0C080800000000080C0C000E0E0E0C040
:1002DE00800000000000000080808080C0C0C0C090
:1002EE00C0C0C0C0C0C0C0C000000000000060E0C0
:1002FE00E0E0000000F0F0E0800000000000008070
:10030E008080000000000000000000000000E0E01F
:10031E00E0C08000000000000000000000000000AF
:10032E000000000000000000000000E0E0E000001F
:10033E00000000000000000000C0E0F078FCFEFFAE
:10034E0067637363FFFFFEF8FC7FFFFFDCECF1F3E6
:10035E000303000000000003075FFDFBFFFFFDFF2E
:10036E00FFFFFF7F0F0301000000000000000003ED
:10037E00071FFFFFFBFFFFFFC5CEFFFFFFE7F3F3F6
:10038E003B3B300000000000000038383830303879
:10039E00B9DFFFFCFCEE0E060707000000000000B0
:1003AE000030303EFEFE30F8F8F0A6FFFFFFF6FFFD
:1003BE00FFFFE6600000000000010100008FFFFF5C
:1003CE007000187CFFFFFF616070391FFFFFFBF9A3
:1003DE00C00000000000000000000003C3E7FF7E25
:1003EE001F3F7970000000000000000000000607AB
:1003FE00071F7F7F730F3F3F01010F0F0FE0FFFFBE
:10040E00000000000000000000007070783C7EFFCD
:10041E00F7C3E1F87F3F000000000000000000007D
:10042E000000001C1F1F0F07E1E1F97F3F07060EBA
:10043E001E3CF8E0C00000000000000000030303B3
:10044E00000000000000000000000000000307078D
:10045E00030000000000000000000E0F0703010063
:10046E00000000000000000000000000000000007E
:10047E00000000000000000000000000040F0F014B
:10048E00000000000000000000000000000000005E
:10049E00010100000000000000000000000000004C
:1004AE00000000000000000000000000000000003E
:1004BE000000000303030000000000000000000025
:1004CE00000000000000000000000000000000001E
:1004DE00000000000000000000000000000000000E
:1004EE0000000000000000000000000000000000FE
:1004FE0000000000000000000000000000000000EE
:10050E0000000000000000000000000000000000DD
:10051E0000000000000000000000000000000000CD
:10052E0000000000000000000000000000000000BD
:10053E0000000000000000000000000000000000AD
:10054E00000000000000000000000000000000009D
:10055E00000000000000000000000000000000008D
:10056E00000000000000000000000000000000007D
:10057E00000000000000000000000000000000006D
:10058E00000000000000000000000000000000005D
:10059E00000000000000000000000000000000004D
:1005AE00000000000000000000000000000000003D
:1005BE000000000000000000FFFFFFFFFFFFFFFF35
:1005CE00FFFFFFFFF0FFFFFFFFFFFFFFFFFFFFFF3C
:1005DE00FFF0FFFEDF001C0E1DFEAFFFFFFFF0FF62
:1005EE00FEBFF5FDEFD021B7FFFFFFF0FFFD8180CD
:1005FE003C0ED7BDBFFFFFFFF0FFF97DB5BDEED0BE
:10060E002003FFFFFFF0FFF4EF803C0ED7FDBFFF8E
:10061E00FFFFF0FFFDABF7FFFE103D37FFFFFFF0D2
:10062E00FFFDAB000003D2B8AFFFFFFFF0FFFD6D83
:10063E00EEFB7F9025DFFFFFFFF0FFFCEDC5F90617
:10064E004ABD9BFFFFFFF0FFFDEFF8F67FDABC6BB4
:10065E007BEFBDF0FFFD8F072F031F31F3FFFFFF71
:10066E00F0FFFFFFFFFFFFFFFFFFFFFFFFF0FFFFAA
:10067E00FFFFFFFFFFFFFFFFFFFFF0FFFFFFFFFF8B
:10068E00FFFFFFFFFFFFFFF0FFFFFFFFFFFFFFFF7B
:10069E00FFFFFFFFF0EAFFFFFFFFFFFFFFE1FFFDA0
:1006AE00FFF0F1FFFFFFFFFFFFFFE03FDCFFF0C0B9
:1006BE002FFFFFF3FFFFFFFFBD8CFFF0F1FFFFFFEA
:1006CE00C7EFFFFCFFB904FFF0E8FFFFFF071F7F36
:1006DE00FF3FF020FFF0DB7FFFFC0C1C7F7FCFEE97
:1006EE0071FFF0FBF7E3F80010DF8FF3FE7DFFF0F4
:1006FE00FFFBC1F0000097C1F8FEFFEFF0FBEB9897
:10070E00E0003910F03C3FFFBFF0FFF1A4E0000421
:10071E00101C061F8F97F0FFD18AC0000030000119
:10072E000F078FF0FFE08A00000030380006331B01
:10073E00F0FFA044000000504000064B17F0FFC031
:10074E0060000FC048000002A205F0FF4070003F9D
:10075E00E088000000A203F0FF80F80000F104071B
:10076E00E0004401F0FE81E80001C2044FF8000FE2
:10077E0003F0FF0008000184023E00001F82F0FD1E
:10078E000010000088010600001041F0FE01E0019B
:10079E001308008700001001B0FF0620008810002B
:1007AE00430000100110FD0A100144100022000049
:1007BE001801B0F81110008010002191001401F002
:1007CE00FC108870001000102203E000B0FE2084A0
:1007DE004C0020001045053100F0F420438B80C002
:1007EE00001002088880B0FC204008FF00001000B6
:1007FE0018404070F6204008800000080068400055
:10080E00D0FC2040088000000603902020600000ED
:02081E000000D8
:10147B0020263120042004228422442FF4224423EA
:10148B008C200420042004200420042004200420A9
:10149B00042004FFFF0000000002290096025E00FA
:1014AB0096025C00960258009602240096022600D3
:1014BB0096026000000221000002620000015A0047
:10177C00C290D29175A0FFD292AFA0C292EF20E797
:01178C00F369
:01178D002239
:06173500ED24B8FFD20212
:10173B00C290C291A202B39294A20292938FA0D2B2
:05174B009200C2922291
:0616F700120916FFD202E9
:1016FD00AE0712177CD290C291A202B39294A202AD
:0A170D0092938EA0D29200C29222A5
:10163000C2B70000D2B7C2027F3F12173BC2027F7F
:10164000C012173BC2027FB812173BC2027F401282
:10165000173BD2021F12173BD2027FC012173BD298
:0D166000027FB812173BD2027F4002173BF9
:10166D00E4FDED24B8FFC20212173BC2027F401207
:10167D00173B121735D2027F4012173BE4FCC20212
:10168D00E4FF1216FDD202E4FF1216FD0CBC40EE73
:04169D000DBD08CEA9
:0116A1002226
:0C11FE007BFF750D03750E347D187C001E
:0A120A008B088A09890A8C0B8D0CF1
:10121400E4F50FC3E50F950CE4950B5063E50D243D
:10122400B8FFC20212173BE50D121736E50E250F63
:10123400FFE433FEC3EF9440EE64809480E50E50E7
:101244001E2440250FFFC20212173BAB08AA09A9AE
:101254000A850F82758300120916FFC202801A25BF
:101264000FFFD20212173BAB08AA09A90A850F8205
:10127400758300120916FFD2021216FD050F809322
:011284002247
:061285008B088A09890AAA
:10128B00E4F50BE50B24B8FFC20212173BC2027F39
:10129B004012173BE4F50CAB08AA09A90A75F080BC
:1012AB00E50BA4250CF582E435F0F583120916FF46
:1012BB00C2021216FD050CE50CC3944040D9E50B98
:1012CB00121736D2027F4012173BE4F50CE50B7573
:1012DB00F080A42440FFE435F0FEE50C2FF582E40A
:1012EB003EF583AB08AA09A90A1216F7050CE50C03
:0E12FB00C3944040D8050BE50BC39408408512
:0113090022C1
:0C15F000EA25E025E02408FFE954BBFBDD
:1015FC00AE07AC03EEC39440ED501724B8FFC20203
:10160C0012173BEE2440FFC20212173BAF04C2027A
:10161C00800E121736AF06D20212173BAF04D2025D
:04162C001216FD2273
:0616A2008B088A09890A89
:1016A800E4FD121735D2027F5412173BE4FCAB0855
:1016B800AA09A90A75F02CEDA42CF582E435F0F5F9
:0C16C800831216F70CBC2CE60DBD08D6F2
:0116D40022F3
:10176700E4FAAD027BFF7F1E1215FC7F471215FCC2
:041777000ABA08EEB4
:01177B00224B
:1010D900E4FAE4F9E4F512EA25E025E02464F8E607
:1010E900FE08E6FFC3740C99FDEFA805088005CE3C
:1010F900C313CE13D8F930E00375120FEA25E025A2
:10110900E02466F8E6FE08E6A805088005CEC313C4
:10111900CE13D8F930E0034312F0E925E025E024A5
:101129001FFFAD02AB121215FCE925E025E02420D2
:10113900FFE51254BBFB1215FCE925E025E024214B
:10114900FFE51254DDFB1215FCE925E025E0242218
:10115900FFAB121215FC09E9640A60030210DD0AEB
:08116900EA640860030210DBD8
:01117100225B
:1009AA00E4FB20B51EC3E52794B0E5269404500A5B
:1009BA000527E52770130526800FE4F526F5277B22
:1009CA000680067526047527B020B01EC3E55F941D
:1009DA0096E55E9400500A055FE55F7013055E8038
:1009EA000FE4F55EF55F7B018006755E00755F9624
:1009FA0020B21EC3E52A9496E5299400500A052AD6
:100A0A00E52A70130529800FE4F529F52A7B02806F
:100A1A0006752900752A9620B41EC3E52594B0E50B
:100A2A00249404500A0525E52570130524800FE453
:100A3A00F524F5257B0380067524047525B020B1BD
:100A4A003BC3E55D9496E55C9400500A055DE55D5F
:100A5A007034055C8030AE21AF227C007D411209E2
:100A6A00438E5C8F5DC3E5229402E5219400500811
:100A7A000522E522700205217B04800AE4F521F5AE
:100A8A0022F55C755D9620B33BC3E5599496E5580B
:100A9A009400500A0559E559703405588030AE6003
:100AAA00AF617C007D411209438E588F59C3E561BD
:100ABA009402E560940050080561E56170020560E2
:100ACA007B05800AE4F560F561F558755996AF0320
:010ADA0022F9
:0E0BFB00FDAF2B120ADBAA06AB07AD2EAF2D05
:080C09008F128D138A148B1564
:100C1100D202AD30AC2FE4F516C374039516252E20
:100C210025E02464F97E00ED540FFFC37409952D6E
:100C3100FBEFA803088005C333CE33CED8F9F4FF08
:100C4100EEF457F7EF0957F7ECC4F854F0C868FC15
:100C5100EDC4540F48FD0516E516B404BCAC14AD43
:100C610015E4F5167E00ED540FFFC374099512FBD0
:100C7100EFA803088005C333CE33CED8F9FFC37480
:100C8100039516251325E02464F8EE56FEEF085669
:100C91004E6002C202ECC4F854F0C868FCEDC454C2
:100CA1000F48FD0516E516B404BAAC2FAD30E4F5D6
:100CB10016C374039516252E25E02464F97E00EDF4
:100CC100540FFFC37409952DFBEFA803088005C3DA
:100CD10033CE33CED8F9FFEE47F7EF0947F7ECC42F
:100CE100F854F0C868FCEDC4540F48FD0516E5162C
:050CF100B404BEA202E4
:010CF60022DB
:100ADB00EFB407004003020BF6900AEBF8282873DB
:100AEB00020B00020B23020B50020B7C020B960233
:100AFB000BB4020BD2ED14600F14600E14601224B1
:100B0B00036003020BF6800280077AF07B00020B76
:100B1B00F67444FAFB020BF6ED146014146018140F
:100B2B00601C24036003020BF67AE87B00020BF6D1
:100B3B007AC47B40020BF67A2E7B00020BF67A8886
:100B4B007BC0020BF6ED14601414601814601C24A7
:100B5B00036003020BF67AE27B00020BF67A447B0E
:100B6B00C0020BF67A8E7B00020BF67AC87B808074
:100B7B007AED14600C14600B14600A2403706C8003
:100B8B0004800280007ACC7B008060ED14600C1432
:100B9B00600B14600E24037052800280067AC67BB1
:100BAB000080487A4C7B808042ED14600C14600B03
:100BBB0014600E24037034800280067A6C7B0080F4
:100BCB002A7A8C7B408024ED14601014601314601F
:100BDB0016240370167A4E7B0080107A8C7B8080F3
:0F0BEB000A7AE47B0080047A4C7B40AF03AE02B1
:010BFA0022D8
:0C178E00AD2CAF2B120ADB8E2F8F302207
:0B0F870012178EAB30AA2FAD2EAF2D3D
:040F92008F12A9050C
:100F9600E4FD7E00EB540FFFC374099512FCEFA825
:100FA60004088005C333CE33CED8F9F4FFEEF4FE41
:100FB600C374039D29FC25E02464F8EE56FEEF0871
:100FC60056FFEC25E02464F8A60608A607EAC4F84E
:100FD60054F0C868FAEBC4540F48FB0DBD04B3AA1D
:100FE6002FAB30E4FD7E00EB540FFFC37409952D43
:100FF600FCEFA804088005C333CE33CED8F9FFC36F
:1010060074039D252EFC25E02464F8EE46FEEF08C9
:1010160046FFEC25E02464F8A60608A607EAC4F80D
:0F10260054F0C868FAEBC4540F48FB0DBD04B674
:011035002298
:101562007E00CFCDCFCECCCE120955AB07E51824E5
:0615720005FFF518AD199C
:061578008F1A8D1BA90370
:10157E00E4FAE51A2AFF75F004E9A42AF582E435A7
:10158E00F0F583E582243EF582E5833400F583E4AD
:0B159E0093FBAD1B1215FC0ABA04D72A
:0115A900221F
:0417A4007D047F3E03
:0517A800AB5A021578A8
:10130A008F188D19AE62AF637C277D10120955AB19
:10131A0007AD19AF18121578AE62AF637C277D103E
:10132A001209557E037FE8121564AE62AF637C032F
:10133A007DE81209557F64121562AE62AF637C00C4
:10134A007D641209557F0A121562E5182405FFF516
:10135A0018C007AE62AF637C007D0A120955AB055F
:07136A00D007AD1902157850
:100ED100E4F51378147C00FD7BFF7A08791CFE7F12
:100EE100041208F0E4F512E51225E02464F8E65452
:100EF1003FFE08E654FC64FC7003EE643F7038E585
:100F01001204FF74142513F8A6070563E563700244
:100F11000562AE62FF7C007D1E120955ED4C700F1B
:100F2100E55A64096009055A7D047F0D1217A80569
:100F310013E513640460090512E512C3941040A778
:100F4100E4F51374142513F8E6602D14F512E51277
:100F5100D394004023E51225E02462F8E6FE08E67A
:100F6100FFE51225E02464F8A60608A60778647652
:100F710020087604151280D60513E513B404C47D48
:060F8100017F0302130AC8
:100DF000AD57AF5B120ADB8F828E83E4FAE4F9C34E
:100E0000740F9AFFE582AE83A807088005CEC3134E
:100E1000CE13D8F930E002790FC3740B9AFFE58244
:100E2000AE83A807088005CEC313CE13D8F930E0EF
:100E3000034301F0EA25E025E02407FFAB017D062E
:100E40001215FC1215F0EA25E025E02409FFE9540B
:100E5000DDFB1215FCEA25E025E0240AFFAB0112B8
:100E600015FCE4F9C374079AFFE582AE83A807086E
:100E70008005CEC313CE13D8F930E002790FC374C6
:100E8000039AFFE582AE83A807088005CEC313CE80
:100E900013D8F930E0034301F0EA25E025E0240708
:100EA000FFAB017D071215FC1215F0EA25E025E0E5
:100EB0002409FFE954DDFB1215FCEA25E025E024B6
:100EC0000AFFAB011215FC0AEA64046003020DFD7F
:010ED00022FF
:10171700855B2B85572C752D03E4F52EE58A75F02F
:0E172700078485F05BE58A5403F557020DF048
:100CF7001209AAEF14605F147003020DE624FE7058
:100D070003020D93147003020DBB24026003020D4E
:100D1700EFE52E7003020DEFC2AFC2B6E52C6403F8
:100D2700700F120BFB500AE4F52C12178E7D03800F
:100D370017E4120BFB501DE52C04120BFB50150595
:100D47002C12178EE52C14FDAF2B120ADBAA06AB6B
:100D570007120F8E805CE52E7003020DEFC2AFC243
:100D6700B6E52E04FDAB30AA2FAF2D120C0950119A
:100D7700052EE52E14FDAB30AA2FAF2D120F928052
:100D8700E0120ED1121717120F87804EE52E60580A
:100D9700C2AFC2B6E52D14FFAB30AA2FAD2E120C91
:100DA70009500F152DE52D04FFAB30AA2FAD2E12DC
:100DB7000F928026E52E6030C2AFC2B6E52D04FF44
:100DC700AB30AA2FAD2E120C09500F052DE52D14AF
:100DD700FFAB30AA2FAD2E120F92D2AFD2B622C2DE
:090DE700B6B20330B2FDD2B6220F
:1014CC00C202AD30AC2FE4FB7E00ED540FFFC374B1
:1014DC0009952DFAEFA802088005C333CE33CED878
:1014EC00F9FFC374039B252E25E02464F8EE56FE09
:1014FC00EF08564E6002D202ECC4F854F0C868FCF7
:0C150C00EDC4540F48FD0BBB04BEA2024E
:0115180022B0
:10142A00E55A25E0FFC374149FFFE528C39F5003C4
:10143A00052822E4F528E52E04FDAB30AA2FAF2DAE
:10144A00120C09500F052EE52E14FDAB30AA2FAF52
:10145A002D020F92120ED112171712178E1214CCD8
:10146A009204120F8AE55A25E0FFC374139FF528E8
:01147A00224F
:10103600D20012166DE4FAAF027BFFE4FD1215FC36
:10104600AF027D071215FC0ABA80EC7B7F7D047F18
:101056003C1215FC7B3E7F3B1215FC7B1C7F3A1233
:1010660015FC7B087F391215FC7B7F7F431215FC2C
:101076007B3E7F441215FC7B1C7F451215FC7B08CA
:101086007F461215FC7A00790E1211FE1217A43053
:1010960000401209AAEF24FB601914602A2402708A
:1010A600EEE55A6009C2B6155A1217A4D2B620B197
:1010B600DE80FBE55A64096009C2B6055A1217A418
:1010C600D2B620B3CA80FBC200C2B630B5FDD2B6D6
:0210D60080BDDB
:0110D80022F5
:1016D500D2007BFF7A0179C61212853000131209F8
:1016E500AAEF24FA70F5C200C2B630B5FDD2B680B5
:0116F500EA0A
:0116F60022D1
:10151900E4F528755B06755702F562F563C204C2E6
:101529000312166DE4F5231217677BFF7A007926FB
:10153900E4F50D750E037D18FC12120A7BFF7A0083
:10154900790E750D03750E0312120A7D017F0312C0
:09155900130A7D047F0D0217A89E
:0A179A00758903D28CD2A9D2AF22C8
:1015AA00E4FFEF25E02431F8E6FC08E6FDEF25E04C
:1015BA002464F8A60408A6050FBF13E67BFF7A0089
:1015CA0079661216A2C204121717120F87E55A2556
:1015DA00E0FFC374139FF52812179A200405120C12
:0515EA00F780F8C2AF1C
:0115EF0022D9
:10137100D2007BFF7A0579C612128530B4FD3000A8
:10138100131209AAEF24FA70F5C200C2B630B5FDF6
:10139100D2B680EA12166DE4FAAF027BFFE4FD12C9
:1013A10015FCAF027D071215FC0ABA80EC7A0079B0
:1013B100261211FE7D047F3412130AD2003000136D
:1013C1001209AAEF24FA70F5C200C2B630B5FDD2F7
:0313D100B680EAF9
:0113D40022F6
:1017500012163012166D1216D512103612151912F5
:0717600015AA12137180EFBE
:03000B000213D508
:1013D500C0E0C0F0C083C082C0D075D000C000C0DE
:1013E50001C002C003C004C005C006C007758C005B
:1013F500758A00E523C3940A50040523800C7523E0
:101405000020030612142A1210D9D007D006D005E1
:10141500D004D003D002D001D000D0D0D082D08368
:05142500D0F0D0E03220
:10117E00021750E493A3F8E493A34003F68001F220
:10118E0008DFF48029E493A3F85407240CC8C33372
:10119E00C4540F4420C8834004F456800146F6DF41
:1011AE00E4800B010204081020408090147BE47E42
:1011BE00019360BCA3FF543F30E509541FFEE49336
:1011CE00A360010ECF54C025E060A840B8E493A3FD
:1011DE00FAE493A3F8E493A3C8C582C8CAC583CA28
:1011EE00F0A3C8C582C8CAC583CADFE9DEE780BEE0
:0114CB000020
:10082000E709F608DFFA8046E709F208DFFA803EBA
:1008300088828C83E709F0A3DFFA8032E309F608A7
:10084000DFFA8078E309F208DFFA807088828C830F
:10085000E309F0A3DFFA806489828A83E0A3F608C3
:10086000DFFA805889828A83E0A3F208DFFA804C9D
:1008700080D280FA80C680D4806980F28033801074
:1008800080A680EA809A80A880DA80E280CA8033DD
:1008900089828A83ECFAE493A3C8C582C8CCC58355
:1008A000CCF0A3C8C582C8CCC583CCDFE9DEE78025
:1008B0000D89828A83E493A3F608DFF9ECFAA9F0A4
:1008C000EDFB2289828A83ECFAE0A3C8C582C8CCFA
:1008D000C583CCF0A3C8C582C8CCC583CCDFEADE13
:1008E000E880DB89828A83E493A3F208DFF980CC75
:1008F00088F0EF60010E4E60C388F0ED2402B4046E
:100900000050B9F582EB2402B4040050AF23234514
:06091000822390087073C1
:10091600BB010CE58229F582E5833AF583E0225096
:1009260006E92582F8E622BBFE06E92582F8E222E0
:0D093600E58229F582E5833AF583E49322FA
:10094300EF8DF0A4A8F0CF8CF0A428CE8DF0A42EC8
:02095300FE2282
:10095500BC000BBE0029EF8DF084FFADF022E4CC86
:10096500F875F008EF2FFFEE33FEEC33FCEE9DEC4F
:10097500984005FCEE9DFE0FD5F0E9E4CEFD22ED95
:10098500F8F5F0EE8420D21CFEADF075F008EF2FDF
:10099500FFED33FD4007985006D5F0F222C398FDD0
:0509A5000FD5F0EA226D
:00000001FF
